:03000000020159A1
:0C015900787FE4F6D8FD758107020003F2
:0A00AF001201651201037F647E0058
:1000B900E4FDFCC3ED9FEC9E5015E4FBFA0BBB007D
:0F00C900010ABA04F8BBFBF50DBD00010C80E481
:0100D8002205
:0200D900A90775
:1000DB00E954F0F590C290C291D2927F017E00124A
:1000EB0000B9C292E9C454F0F590C290C291D29279
:0700FB007F011200B9C2925F
:0101020022DA
:02010300A9074A
:10010500E954F0F590D290C291D2927F017E00120F
:1001150000B9C292E9C454F0F590D290C291D2923E
:070125007F011200B9C29234
:01012C0022B0
:10012D007F331200D97F321200D97F281200D97F78
:0E013D00061200D97F0C1200D97F010200D9F2
:0E014B00758920758DFD759850D28ED299223F
:080165003099FD8F99C2992227
:1000030012012D12014BD2A4D2A5D2A6D2A7C2A00F
:10001300D2A1D2A2D2A320A4047F31801320A504AD
:100023007F32800C20A6047F33800520A7057F4103
:100033001200AFD2A0C2A1D2A2D2A320A4047F34C3
:10004300801320A5047F35800C20A6047F3680050D
:1000530020A7057F421200AFD2A0D2A1C2A2D2A391
:1000630020A4047F37801320A5047F38800C20A6AA
:10007300047F39800520A7057F431200AFD2A0D2A9
:10008300A1D2A2C2A320A4047F2A800C20A5047FAE
:1000930030800520A6087F231200AF02001130A78D
:0C00A300030200117F441200AF020011A4
:00000001FF
